{"abi":[{"type":"function","name":"verifyProof","inputs":[{"name":"_pA","type":"uint256[2]","internalType":"uint256[2]"},{"name":"_pB","type":"uint256[2][2]","internalType":"uint256[2][2]"},{"name":"_pC","type":"uint256[2]","internalType":"uint256[2]"},{"name":"_pubSignals","type":"uint256[22]","internalType":"uint256[22]"}],"outputs":[{"name":"","type":"bool","internalType":"bool"}],"stateMutability":"view"}],"bytecode":{"object":"0x608060405234801561001057600080fd5b50610d27806100206000396000f3fe608060405234801561001057600080fd5b506004361061002b5760003560e01c8063c5a0fc2614610030575b600080fd5b61004361003e366004610c8b565b610057565b604051901515815260200160405180910390f35b6000610b16565b7f30644e72e131a029b85045b68181585d97816a916871ca8d3c208c16d87cfd47811061008f576000805260206000f35b50565b600060405183815284602082015285604082015260408160608360076107d05a03fa9150816100c5576000805260206000f35b825160408201526020830151606082015260408360808360066107d05a03fa915050806100f6576000805260206000f35b5050505050565b7f1d0a416f536f4cc15e851aa6ea109b093b9e9a10218a9138198c7e395f4095f785527f0e1e6981c1aad005260c17f56162c9fe7e7806ee750e342bbae129e165010c0660208601526000608086018661019a87357f1a90ec667c24a80ef98e5eaf70ad6b2d98b7df915dbc9d8266e67bc39ec6f29c7f08039dc9da9fe74e52f93632a76a766641831873e56fe21da878baba203993a284610092565b6101ea60208801357f23c5b8578b7f85761ce291b1ca7f63f157a49c663838da5d788478988fdc47787f2e593d1e61db4bfc48187ebcaed69d4d656250c932798ab45df4618f0bf44b3184610092565b61023a60408801357f2490f28e60476d091b092392f8bb865731ae700b68b05962c51a15322a3ad7767f1b78a1088123b8dc10c2ad3b3ca4518c90a62621554acf5d74385461e9aed88584610092565b61028a60608801357f2e6b85ed92dd7e36a0de6d437705c51ddffdd80404007e91a6224387d7e765be7f1626f03726aa4e2be91f78091383f9a71bc8055d6f6bab0094acd6e56752aa2b84610092565b6102da60808801357f2810545d19009c8c3a35d2ecc585eea0628782073e7bdf9215561ec5eb2e587e7f12e5da0ffe73525e4117fa70138ea6d3735b3ae8e3929f8d70f0009567642c5f84610092565b61032a60a08801357f26104741c60e8414529d3190e066077ed50f3a5ff2cee0812b3d69fcf00095d07f0457e85c053f0264810d7a3430a965384ad0b9789a2e3a0e459e6a6f0035e23084610092565b61037a60c08801357f11c8f86c6e759fc5e741c9cad802a3c3a046b5de0f7ddb5bc389ff62fc4950d57f09b7f143c0626db5ca3dc35a530be5a8050d6a3e3ab230efc05bf5824b705b5b84610092565b6103ca60e08801357f239951e4fe7dc1a8f40fc632d64a71c1d8205a0b6e7d4255ac9d108306b4ac9c7f1219d6048f787ce42e33e76059a5b5a2452667eb9f64d418783a97995a90585d84610092565b61041b6101008801357f15769f736d4c06f28ae93c6122ce8dbdf67ab7dd012d531bf1a74f1390779b627f1bf71749b3c0f34ae17cf6d0f2beae6275a0cbf4cdd5df47376a033cc64f66a084610092565b61046c6101208801357f0ab5b7f5dcd1dec8f02912abe8fc74febdab1ce85a044a54d2dd4a2910e64b2f7f136578695ebacb4b7655dabca3efdfd65f4c1f562bf8f4118bdc999c23aa060284610092565b6104bd6101408801357f0cbb4f46df5110fa5844e152f02beea0cf56936585b4a23d79ecc1e1513672767f23f50df0c1041fced3f805f597a24ebacea94f34a6bd6fae905ad29ab1186e6f84610092565b61050e6101608801357f2a8f29a72095f034cadfdda9fb0335c624dad96762e0db5c81c7de55040476d37f1f24da9c18787b09e6cd19973932a488efc149bf96df8a9936073bfd872d89df84610092565b61055f6101808801357f013774c665e9166534aaada977101875f2820792962bb9e260f0fca96c8c58d37f0b6d6cb5125b990073c1c11bd2b750a6bbb463660182150ba0126b7d5316d39c84610092565b6105b06101a08801357f2e68a80ba6db825135af790870ed3fce2dfb8cfe2cf6d0205e8020d8749826b87f088c841fdd47e93245ef612b5e183954e6d093acb6662fc63582a5bac4e3b3ad84610092565b6106006101c08801357e12e6627cdddf15f325560d53f8d14415b389feba183c8e8c7d5ebafc1880017f28e6c7e62e653e0226c34f4342f1abae8fb1de83185d42fedec8777e7598333384610092565b6106516101e08801357f085f2cf47292cb8d422218455a94a06eb4eaee7daeaed44ef93f15f4bb8f6db27f2e81add94c5fbecc525247576a79a17877e03d675886f2e755ac78cae5ecf22084610092565b6106a26102008801357f2ec0b1cceb88283b57d64e216ed4ac6182ef09b0879de0ad35a941091c50eeae7f278dc36e62a8350e8571571058becbd7e6102a3ee4f1f76429683b427bb6cb8384610092565b6106f36102208801357f1639c83a384ffe6b7ec84bb4bf481daa44c1fb728cd6b0aa3ae16923fcd6d1c97f08879fe11c8cf2f9a03365c06757d4b90676c89b8da41f0126af23aa3100438e84610092565b6107446102408801357f2e0ac34e2fdf521c3f5b77f92df617137ff896325f34d40a05faf156c1fde11d7f0e882a5d0e22c69fd054b7f46caebee0763700d4765d2df6cf9d6181d3a1bc1884610092565b6107956102608801357f3028c705afded0d20d3b50cda81edb41be0ecd5f299dc7381db7f33ecc2d116e7f06395ff816eff94ec583079fb0136df3b9bc19f343cfdee5f5915220bd9c7e7f84610092565b6107e66102808801357f138862b2987aed969cf8baf17c246d0f59b0aabc65382986723a6fe2c4d62f857f242c4a45fe24a0212f831b27d2a9dd451fd39f6aab0a517426ff5a7ab7e047eb84610092565b6108376102a08801357f1820a6b4724bba70d64f4f35306bab3e050486ea27d7dc46eda8cce5ec613c4b7f185506655cb48e3a9d0c25ec43f32d968fe91b162ac2981036f944695a3bf86e84610092565b50823581527f30644e72e131a029b85045b68181585d97816a916871ca8d3c208c16d87cfd4760208401357f30644e72e131a029b85045b68181585d97816a916871ca8d3c208c16d87cfd4703066020820152833560408201526020840135606082015260408401356080820152606084013560a08201527f091ae88a1a6139be97444948766500c06fea021202395978fd2adb5ebd9fccde60c08201527f21c5a94584f479abb351cc36d8a8d838cea4ae5e24f977754b25b969191b82e160e08201527f1febf5805cefa9d16e15297f85ba96c505d8d0a8456bbd3ec0085f6f65eb878f6101008201527f2392252382f1134a7960a2ed7026ae22783889e85835232a8b91c6ea2e6a0a196101208201527f0e0e8de23f490bb88988ea35157b872bdf783b568557ac6c37d0caca245943106101408201527f1a22462fc85f0d518cc3c87d861cfb520e5e4c427b8c2ee7afe75ccbec768b10610160820152600087015161018082015260206000018701516101a08201527f198e9393920d483a7260bfb731fb5d25f1aa493335a9e71297e485b7aef312c26101c08201527f1800deef121f1e76426a00665e5c4479674322d4f75edadd46debd5cd992f6ed6101e08201527f090689d0585ff075ec9e99ad690c3395bc4b313370b38ef355acdadcd122975b6102008201527f12c85ea5db8c6deb4aab71808dcb408fe3d1e7690c43d37b4ce6cc0166fa7daa610220820152843561024082015260208501356102608201527e8382bdf547a3ee54125be78c457dd47bc4459fd4f62f25530897bf7fd7ea0f6102808201527f23e76ae1d7e92d95ec6e62a62c10c473d4afba5235bcef05ab3c41a578b850db6102a08201527f1e0fbda64c3c5faca1310d5b463c5be00693fcc75cee44ccbbccff9a4cbbcbf26102c08201527f1b9dcedd3c125b75902e03767d3619dd5e923b084736d1c6652cf15011097bfc6102e08201526020816103008360086107d05a03fa9051169695505050505050565b6040516103808101604052610b2e600084013561005e565b610b3b602084013561005e565b610b48604084013561005e565b610b55606084013561005e565b610b62608084013561005e565b610b6f60a084013561005e565b610b7c60c084013561005e565b610b8960e084013561005e565b610b9761010084013561005e565b610ba561012084013561005e565b610bb361014084013561005e565b610bc161016084013561005e565b610bcf61018084013561005e565b610bdd6101a084013561005e565b610beb6101c084013561005e565b610bf96101e084013561005e565b610c0761020084013561005e565b610c1561022084013561005e565b610c2361024084013561005e565b610c3161026084013561005e565b610c3f61028084013561005e565b610c4d6102a084013561005e565b610c5b6102c084013561005e565b610c68818486888a6100fd565b90508060005260206000f35b8060408101831015610c8557600080fd5b92915050565b6000806000806103c0808688031215610ca357600080fd5b610cad8787610c74565b945060c0860187811115610cc057600080fd5b604087019450610cd08882610c74565b935050868187011115610ce257600080fd5b5092959194509261010001915056fea2646970667358221220bb6c3664f17465bef7d411d711d34bce1570fa63407643264a6a388c762e846e64736f6c63430008150033","linkReferences":{}},"methodIdentifiers":{"verifyProof(uint256[2],uint256[2][2],uint256[2],uint256[22])":"c5a0fc26"},"id":23}